:020000020000FC
:100000000C948000189500001895000018950000C9
:10001000189500001895000018950000189500002C
:10002000189500001895000018950000189500001C
:100030001895000018950000189500000C9409010F
:1000400000001895000018950000189500001895FC
:1000500000001895000018950000189500001895EC
:100100000FE00EBF0FEF0DBF00E00BBF00E808B916
:100110000FE003BF0CE901BF02E007BF78940C9425
:10012000C100000000030C09116D83601C03000076
:100130000000000000C0F0F0F8F6C10638C0000072
:1001400000000000000102020202060A0B12171B47
:10015000110200000080404040406050D048E85804
:100160000840000303030303030F1E7F5F5F5E7FEE
:10017000000000C040404040407058CECA0A0AFE0D
:10018000000030D34F933F932F9330E0F1E0E2E44F
:10019000C9D52F913F914F914F933F932F9331E0CA
:1001A000F1E0E2E5BFD52F913F914F914F933F93FF
:1001B0002F9332E0F1E0E2E6B5D52F913F914F91D8
:1001C0004F933F932F9333E0F1E0E2E7ABD52F91CC
:1001D0003F914F914F933F932F9334E0F1E0E2E250
:1001E000A1D52F913F914F914F933F932F9335E09E
:1001F000F1E0E2E397D52F913F914F91DCD290E06F
:1002000070E059D0D8D293D097D010E0A6D095D036
:10021000F8CF4FB62F937F93ABD2822F7F912F9140
:10022000723029F073954FBE18954FBE189590FD0A
:10023000E1F391FF0E943E0191FD0E944B019D7FE1
:1002400070E002D04FBE1895873729F0873B39F010
:10025000873D49F00895503009F05A9508955F316F
:1002600009F0539508959260EF93FF93E091610137
:10027000F09160015083FF91EF9108950F93EF93F8
:10028000FF9300E0F0916001E09161010083FF9134
:10029000EF910F910895503009F00CC00F93EF9338
:1002A000FF9301E0E0916101F09160010083FF9113
:1002B000EF910F91089544E12DE030E061E250E0CC
:1002C000F2E0E0E0042F0E943D03F2E0E8E2042FB8
:1002D0000E943D03F2E0E0E5042F0E943D03F2E0BE
:1002E000E8E7042F0E943D03F2E0E0EBE0936101B8
:1002F000F09360010E944803D2E0C0EAF2E0E0E03F
:10030000E8832196F8832196F2E0E8E2E8832196DB
:10031000F8832196F2E0E0E5E8832196F8832196C0
:10032000F2E0E8E7E8832196F8832196089590FDAE
:1003300011F091609E7F089508950F930AE14F9305
:100340003F932F93202FFDE0E4EBADD32F913F910E
:100350004F910E94AB030F9156CF13950BD02A9566
:100360003395203009F0FACF05D03A9523953030F7
:10037000A1F3FACF20D24F933F932F934AE230E07C
:1003800047D32F913F914F914F933F932F934BE240
:1003900030E03ED32F913F914F914F933F932F9356
:1003A0004CE230E035D32F913F914F914F933F93E3
:1003B0002F934DE230E02CD32F913F914F910E942B
:1003C000E4010E948D020895153010F00E9407028A
:1003D0004F933F932F93222FFDE0E4E764D32F91B7
:1003E0003F914F914F933F932F93242FF2E0E0E002
:1003F000CBD32F913F914F914F933F932F93232F27
:10040000FDE0E2E850D32F913F914F9108951930CC
:1004100010F00E942A024F933F932F93222FFDE06A
:10042000E4E741D32F913F914F914F933F932F9307
:10043000242FF2E0E8E2A8D32F913F914F914F9300
:100440003F932F93232FFDE0E2E82DD32F913F918F
:100450004F9108951D3010F00E944D024F933F932D
:100460002F93222FFDE0E4E71ED32F913F914F9170
:100470004F933F932F93242FF2E0E0E585D32F9104
:100480003F914F914F933F932F93232FFDE0E2E84D
:100490000AD32F913F914F910895113110F00E948E
:1004A00070024F933F932F93222FFDE0E4E7FBD29E
:1004B0002F913F914F914F933F932F93242FF2E031
:1004C000E8E762D32F913F914F914F933F932F9342
:1004D000232FFDE0E2E8E7D22F913F914F9108955D
:1004E000153110F00E947F024F933F932F93262FD8
:1004F000FDE0E0E9D8D22F913F914F910895193155
:1005000008F01BCF4F933F932F93262FFDE0E0E998
:10051000CAD22F913F914F910895C6D004D09E7FAB
:1005200014D1916008950F931F936F93AF93BF936E
:10053000CF93DF93F0916001E0916101C0E4D1E0DD
:1005400060E01A951695169513956395160F4F93BF
:100550003F932F934CE23C2F5BD22F913F914F91D1
:100560004F933F932F934DE23D2F52D22F913F91C6
:100570004F91A8E10081003009F428C00A9FA02D06
:10058000B12D4F933F932F934AE23A2F41D22F91AF
:100590003F914F914F933F932F934BE23B2F38D294
:1005A0002F913F914F91173008F02CC04F933F93FC
:1005B0002F9320E088D22F913F914F914F933F93FB
:1005C0002F9321E080D22F913F914F91663009F413
:1005D0000DC0A097A097E03B09F404C03197161B0B
:1005E0000C94A5023596161B0C94A502E0936101AC
:1005F000F0936001DF91CF91BF91AF916F911F9107
:100600000F9108951B3008F0D1CF021708F4CECF18
:100610001750110FB2E0A0EAA10F0F9300E0B01F36
:100620000F91CD91DC912F93021BC00F0F9300E02F
:10063000D01F0F9121963F933881353009F40BC0BC
:10064000343009F411C03F912F9116952F9327E074
:10065000120F2F9108950F9306E0088321970883C6
:1006600000E000830F9108950F9306E00883219620
:10067000088300E000830F9108951F9314E0119305
:1006800015E011930250003009F0F8CF1F91089542
:100690000F931F9306E010E011930150003009F012
:1006A000FACF1F910F9108954F933F932F934CE2F0
:1006B00030E8AED12F913F914F914F933F932F93BD
:1006C0004DE231E0A5D12F913F914F914F933F9350
:1006D0002F93252FFDE0E0E9E6D12F913F914F9137
:1006E0004F933F932F9322E0EED12F913F914F9163
:1006F0004F933F932F9323E0E6D12F913F914F915A
:100700000895AF93BF93BEE4ADE11197F1F7BF91A8
:10071000AF910895AF93BF93B5E1A8E51197F1F7B5
:10072000BF91AF910895AF93BF93B0E0A3E8119745
:10073000F1F7BF91AF910895AF93BF93BFEFAFEFC4
:100740001197F1F7BF91AF910895F6DFF5DFF4DF70
:10075000F3DFF2DF0895F9DFF8DFF7DFF6DFF5DF2B
:10076000F4DFF3DFF2DFF1DFF0DFEFDFEEDF08953C
:100770000F9370EF20E007D001B1200F04D001B13A
:10078000200F0F91089573B9709572B90895AF93C2
:10079000BF93B5E0A2E31197F1F7BF91AF91089530
:1007A000F6DFF5DFF4DFF3DFF2DFF1DFF0DFEFDFBD
:1007B000EEDFEDDF08954F933F932F934F933F93D9
:1007C0002F934EE830E824D12F913F914F914EE87E
:1007D00024D156D130D149D137FDFACF2F913F9155
:1007E0004F91089507E107BB00E008BB0EE50DB986
:1007F00000E008BBCCDF00E108BBD2DF4F933F93A2
:100800002F9348E83AE004D12F913F914F91BFDFF9
:100810004F933F932F9349E832E0FAD02F913F91C5
:100820004F91B5DF4F933F932F9340E130E0F0D0ED
:100830002F913F914F914F933F932F9344E031E895
:10084000E7D02F913F914F91A2DF4F933F932F938A
:1008500044E133E6DDD02F913F914F914F933F9389
:100860002F9345E130E0D4D02F913F914F914F939A
:100870003F932F9346E133E0CBD02F913F914F919F
:100880004F933F932F9347E133E0C2D02F913F9195
:100890004F914F933F932F9348E13BE0B9D02F9175
:1008A0003F914F914F933F932F9349E13FEDB0D04C
:1008B0002F913F914F914F933F932F934AE131E016
:1008C000A7D02F913F914F914F933F932F934BE19F
:1008D0003FE19ED02F913F914F914F933F932F93A4
:1008E0004CE130E095D02F913F914F914F933F9342
:1008F0002F934DE136E18CD02F913F914F914F9343
:100900003F932F934EE130E083D02F913F914F9151
:100910004F933F932F934FE131E07AD02F913F9146
:100920004F914F933F932F9340E330E071D02F913D
:100930003F914F914F933F932F9341E330E068D025
:100940002F913F914F914F933F932F9344E33FE17A
:100950005FD02F913F914F914F933F932F9345E35A
:1009600033E056D02F913F914F914F933F932F9368
:1009700042E330E04DD02F913F914F914F933F9301
:100980002F9343E330E044D02F913F914F914F9309
:100990003F932F9346E33FED3BD02F913F914F91F3
:1009A0004F933F932F9347E331E032D02F913F9104
:1009B0004F914F933F932F934EE830E829D02F91DA
:1009C0003F914F91EDDE4F933F932F9341E030E8FD
:1009D0001FD02F913F914F914F933F932F9347EC0F
:1009E00031E016D02F913F914F914F933F932F932A
:1009F0004AE83AE80DD02F913F914F914F933F93A2
:100A00002F934BE83FEF04D02F913F914F910895E2
:100A100004D036D00AD029D0089532D000E80FB9DA
:100A200021D04FB91FD021D0089500E00FB91AD0BE
:100A30003FB918D0089500E40FB914D000E00FB901
:100A400011D03FB10895E9DF1BD0F5DF0ED0089536
:100A500017D000EC0FB906D000E00FB903D03FB1BA
:100A600004D00895779BFECF089501E108BB0000F4
:100A700000000000000000000000000000000895D9
:100A800000E108BB000000000000000000000000C2
:100A9000000000000895E1D042E0BFDFF1DF322F17
:100AA000C4DFE3DF0895D9D042E0B7DFE9DF00E03B
:100AB0000FB9D8DF203029F035913FB9D3DF2A951F
:100AC000F9CFD3DF08954F933F932F9340E430E85D
:100AD0009FDF2F913F914F914F933F932F9341E48D
:100AE00030E096DF2F913F914F914F933F932F939B
:100AF00040E630E08DDF2F913F914F914F933F9330
:100B00002F9341E630E084DF2F913F914F914F9337
:100B10003F932F9342E630E07BDF2F913F914F913F
:100B20004F933F932F9343E630E072DF2F913F9135
:100B30004F914F933F932F9344E637E069DF2F9116
:100B40003F914F914F933F932F9345E630E060DF05
:100B50002F913F914F914F933F932F9341E230EA72
:100B600057DF2F913F914F914F933F932F9342E245
:100B70003BE04EDF2F913F914F9142E04EDF80DF0F
:100B8000322F53DF72DF08954F933F932F9340E44A
:100B900030E83EDF2F913F914F914F933F932F933A
:100BA00041E430E035DF2F913F914F914F933F93D8
:100BB0002F9340E630E02CDF2F913F914F914F93E0
:100BC0003F932F9341E630E023DF2F913F914F91E8
:100BD0004F933F932F9342E630E01ADF2F913F91DE
:100BE0004F914F933F932F9343E630E011DF2F91C6
:100BF0003F914F914F933F932F9344E637E008DFA7
:100C00002F913F914F914F933F932F9345E630E0C3
:100C1000FFDE2F913F914F914F933F932F9341E2EE
:100C200030EAF6DE2F913F914F914F933F932F93F0
:100C300042E23BE0EDDE2F913F914F9142E0EDDE4D
:100C40001FDF30E03FB90EDF203029F031913FB98E
:100C500009DF2A95F9CF09DF089540E4DEDE10DFD1
:100C6000EADE03DFDADE30680BDFDFDEFEDE4F9325
:100C70003F932F9341E230E0CBDE2F913F914F9194
:100C80004F933F932F9340E630E0C2DE2F913F9188
:100C90004F914F933F932F9341E630E0B9DE2F9170
:100CA0003F914F914F933F932F9342E630E0B0DE58
:100CB0002F913F914F914F933F932F9343E630E015
:100CC000A7DE2F913F914F914F933F932F9344E68F
:100CD00037E09EDE2F913F914F914F933F932F939B
:100CE00045E630E095DE2F913F914F914F933F9332
:100CF0002F9342E23BE08CDE2F913F914F914F9337
:100D00003F932F9341E430E083DE2F913F914F9149
:100D10004F933F932F934EE230E07ADE2F913F9135
:100D20004F9108953F934F933F932F9340E430E0CA
:100D30006FDE2F913F914F914F933F932F9341E25D
:100D400030E066DE2F913F914F914F933F932F9369
:100D500041E434E05DDE2F913F914F9143E23F91BA
:100D600057DE42E05ADE20E18BDE00E00FB97ADE8A
:100D7000A1DE0895202020202020202020202020D7
:100D800020002020202020202020202020202000A3
:100D90002020202020202020202020202020202053
:100DA0002020202020202020202020202020202043
:100DB00020000001436F6E67726174756C61746925
:0E0DC0006F6E732120596F7520646965642E73
:00000001FF
