:020000020000FC
:100000000C948000189500001895000018950000C9
:10001000189500001895000018950000189500002C
:10002000189500001895000018950000189500001C
:100030001895000018950000189500000C942001F8
:1000400000001895000018950000189500001895FC
:1000500000001895000018950000189500001895EC
:100100000FE00EBF0FEF0DBF00E00BBF00E808B916
:100110000FE003BF0FEF01BF02E007BF78940C941C
:10012000C900000000030C09116D83601C0300006E
:100130000000000000C0F0F0F8F6C10638C0000072
:1001400000000000000102020202060A0B12171B47
:10015000110200000080404040406050D048E85804
:100160000840000303030303030F1E7F5F5F5E7FEE
:10017000000000C040404040407058CECA0A0AFE0D
:10018000000000000000000000000000000000006F
:1001900000004BD54F933F932F9330E0F1E0E2E422
:1001A0000E9466092F913F914F914F933F932F9358
:1001B00031E0F1E0E2E50E9466092F913F914F9115
:1001C0004F933F932F9332E0F1E0E2E60E946609FD
:1001D0002F913F914F914F933F932F9333E0F1E055
:1001E000E2E70E9466092F913F914F914F933F9311
:1001F0002F9334E0F1E0E2E20E9466092F913F91F3
:100200004F914F933F932F9335E0F1E0E2E30E944B
:1002100066092F913F914F914F933F932F9336E073
:10022000F1E0E2E80E9466092F913F914F91E3D4FB
:1002300090E070E058D0DFD497D010E043D2FACFEE
:100240004FB62F937F93B4D4822F7F912F91743028
:1002500029F073954FBE18954FBE189590FDE1F3A8
:1002600091FF0E94560191FD0E9463019D7F70E005
:1002700002D04FBE1895873729F0873B39F0873D6C
:1002800049F00895503009F05A9508955F3109F00A
:100290005395089592609460EF93FF93E09161010C
:1002A000F09160015083FF91EF9108950F93EF93C8
:1002B000FF9300E0F0916001E09161010083FF9104
:1002C000EF910F910895503009F00CC00F93EF9308
:1002D000FF9301E0E0916101F09160010083FF91E3
:1002E000EF910F91089544E12DE030E061E250E09C
:1002F000F2E0E0E0042F0E945405F2E0E8E2042F6F
:100300000E945405F2E0E0E5042F0E945405F2E05B
:10031000E8E7042F0E945405F2E0E0EBE09361016E
:10032000F09360010E945F05D2E0C0EAF2E0E0E0F5
:10033000E8832196F8832196F2E0E8E2E8832196AB
:10034000F8832196F2E0E0E5E8832196F883219690
:10035000F2E0E8E7E8832196F883219600916201B4
:1003600000E00093620108950F9300E09B7F9F7768
:1003700042D44F933F932F930F934AE230E00E9471
:1003800082070F912F913F914F914F933F932F935E
:100390000F934BE230E00E9482070F912F913F9123
:1003A0004F914F933F932F930F934CE230E00E9475
:1003B00082070F912F913F914F914F933F932F932E
:1003C0000F934DE230E00E9482070F912F913F91F1
:1003D0004F9101E24F933F932F93202FF4E1ECE8EC
:1003E000DCD52F913F914F91916000E00093620125
:1003F0000E946B050E947A049E7F0E94C205916054
:10040000953009F402C00C94B8010395063008F445
:10041000AFCF0F915A3008F410CF553108F405C012
:10042000513208F447C09E7F08954F933F932F9316
:100430000F934AE230E00E9482070F912F913F9183
:100440004F914F933F932F930F934BE230E00E94D5
:1004500082070F912F913F914F914F933F932F938D
:100460000F934CE230E00E9482070F912F913F9151
:100470004F914F933F932F930F934DE230E00E94A3
:1004800082070F912F913F914F910DEB4F933F9327
:100490002F93202FF3E1EAE480D52F913F914F91E4
:1004A0000E94CB050E94CB050E94CB050E94CB0584
:1004B0000C94B40190680C941D0108954F933F93E0
:1004C0002F930F934AE230E00E9482070F912F9101
:1004D0003F914F914F933F932F930F934BE230E017
:1004E0000E9482070F912F913F914F914F933F931D
:1004F0002F930F934CE230E00E9482070F912F91CF
:100500003F914F914F933F932F930F934DE230E0E4
:100510000E9482070F912F913F914F910F930AE113
:100520004F933F932F93202FF4E1ECE236D52F9198
:100530003F914F910FE04F933F932F930F934AE2D8
:1005400030E00E9482070F912F913F914F914F937E
:100550003F932F930F934BE230E00E9482070F915D
:100560002F913F914F914F933F932F930F934CE2D5
:100570003DE30E9482070F912F913F914F914F933E
:100580003F932F930F934DE230E00E9482070F912B
:100590002F913F914F914F933F932F93202FF4E151
:1005A000ECE7FBD42F913F914F91009162010E94A3
:1005B00070030E94CB050E94CB050F913BCE4F9359
:1005C0003F932F930F934AE230E00E9482070F91EE
:1005D0002F913F914F914F933F932F930F934BE266
:1005E00030E00E9482070F912F913F914F914F93DE
:1005F0003F932F930F934CE230E00E9482070F91BC
:100600002F913F914F914F933F932F930F934DE233
:1006100030E00E9482070F912F913F914F910E94ED
:10062000FB050F9306E34F933F932F93202FF4E1A5
:10063000E6E4B3D42F913F914F910FE04F933F9356
:100640002F930F934AE230E00E9482070F912F917F
:100650003F914F914F933F932F930F934BE230E095
:100660000E9482070F912F913F914F914F933F939B
:100670002F930F934CE23DE70E9482070F912F9139
:100680003F914F914F933F932F930F934DE230E063
:100690000E9482070F912F913F914F914F933F936B
:1006A0002F93202FF4E1ECE778D42F913F914F91D5
:1006B000009162010E9470030E94CB050E94CB054D
:1006C0000F91B8CD1395139530D02A9533952030DE
:1006D00009F0FACF2AD03A952395303099F3FACF22
:1006E0000F931F93772488241AE0011B22F431F022
:1006F000010F0C947E0383940C947503702E00E319
:10070000700E800E4F933F932F93282D3ED42F9140
:100710003F914F914F933F932F93272D36D42F9195
:100720003F914F910F911F91089565D24F933F9341
:100730002F930F934AE230E00E9482070F912F918E
:100740003F914F914F933F932F930F934BE230E0A4
:100750000E9482070F912F913F914F914F933F93AA
:100760002F930F934CE230E00E9482070F912F915C
:100770003F914F914F933F932F930F934DE230E072
:100780000E9482070F912F913F914F910E94CB03BE
:100790000E9474040895153010F00E94EE034F93E8
:1007A0003F932F93222FF3E1EEE2F7D32F913F9166
:1007B0004F914F933F932F93242FF2E0E0E07CD4AE
:1007C0002F913F914F914F933F932F93232FF3E11D
:1007D000ECE3E3D32F913F914F910895193010F03E
:1007E0000E9411044F933F932F93222FF3E1EEE2E7
:1007F000D4D32F913F914F914F933F932F93242F19
:10080000F2E0E8E259D42F913F914F914F933F93FB
:100810002F93232FF3E1ECE3C0D32F913F914F911E
:1008200008951D3010F00E9434044F933F932F938E
:10083000222FF3E1EEE2B1D32F913F914F914F93ED
:100840003F932F93242FF2E0E0E536D42F913F9190
:100850004F914F933F932F93232FF3E1ECE39DD3DD
:100860002F913F914F910895113110F00E9457043C
:100870004F933F932F93222FF3E1EEE28ED32F91EC
:100880003F914F914F933F932F93242FF2E0E8E74E
:1008900013D42F913F914F914F933F932F93232F39
:1008A000F3E1ECE37AD32F913F914F910895153105
:1008B00010F00E9466044F933F932F93262FF4E18C
:1008C000E8E06BD32F913F914F910895193108F0D3
:1008D000F5CD4F933F932F93262FF4E1E8E05DD3BE
:1008E0002F913F914F910895F6D004D09E7F4AD129
:1008F000916008950F931F936F93AF93BF93CF931E
:10090000DF93F0916001E0916101C0E4D1E060E02B
:100910001A951695169513956395160F4F933F9359
:100920002F930F934CE23C2FEDD20F912F913F91DB
:100930004F914F933F932F930F934DE23D2FE2D270
:100940000F912F913F914F91A8E10081003009F460
:100950002CC00A9FA02DB12D4F933F932F930F933F
:100960004AE23A2FCFD20F912F913F914F914F935F
:100970003F932F930F934BE23B2FC4D20F912F91B4
:100980003F914F91173008F02CC04F933F932F9316
:1009900020E013D32F913F914F914F933F932F938B
:1009A00021E00BD32F913F914F91663009F40DC098
:1009B000A097A097E03B09F404C03197161B0C9454
:1009C0008C043596161B0C948C04E0936101F09313
:1009D0006001DF91CF91BF91AF916F911F910F9106
:1009E00008951B3008F0D1CF021708F4CECF17506E
:1009F000110FB2E0A0EAA10FDF93CF930F9300E0B5
:100A0000B01F0F91CD91DC912F93021B2F910431D8
:100A100018F0CF91DF910C94C504C00F0F9300E044
:100A2000D01F0F9121963F933881353011F40E94E9
:100A30003205343011F40E944305363049F43F91B9
:100A400016952F9327E0120F2F91CF91DF919DCF15
:100A50003F9116952F9327E0120F2F91CF91DF91A1
:100A60000C94D5040F9306E008832197088300E0D7
:100A7000008300916201039500936201083209F43A
:100A80009ECD0F9108950F9306E008832196088369
:100A900000E0008300916201039500936201083237
:100AA00009F48DCD0F9108951F9314E0119315E073
:100AB00011930250003009F0F8CF1F9108950F9361
:100AC0001F9306E010E011930150003009F0FACFB7
:100AD0001F910F9108954F933F932F930F934CE2E3
:100AE00030E80E9482070F912F913F914F914F93D1
:100AF0003F932F930F934DE231E00E9482070F91B5
:100B00002F913F914F914F933F932F93252FF4E1D6
:100B1000E8E043D22F913F914F914F933F932F9312
:100B200022E04BD22F913F914F914F933F932F93C0
:100B300023E043D22F913F914F910895AF93BF93FC
:100B4000BEE4ADE11197F1F7BF91AF910895AF9376
:100B5000BF93B5E1A8E51197F1F7BF91AF91089563
:100B6000AF93BF93B0E0A3E81197F1F7BF91AF91B6
:100B70000895AF93BF93BFEFAFEF1197F1F7BF9118
:100B8000AF910895F6DF903808F004C0F2DFF1DF8E
:100B9000F0DFEFDF0895F6DFF5DFF4DFF3DFF2DFFC
:100BA000F1DFF0DFEFDFEEDFEDDFECDFEBDF08950D
:100BB0000F9370EF20E007D001B1200F04D001B1F6
:100BC000200F0F91089573B9709572B90895AF937E
:100BD000BF93B5E0A2E31197F1F7BF91AF910895EC
:100BE000F6DFF5DFF4DFF3DFF2DFF1DFF0DFEFDF79
:100BF000EEDFEDDF08954F933F932F934F933F9395
:100C00002F930F934EE830E80E9482070F912F91A7
:100C10003F914F914EE87BD1ADD187D1A0D137FD27
:100C2000FACF2F913F914F91089507E107BB00E064
:100C300008BB0EE50DB900E008BBC9DF00E108BB49
:100C4000CFDF4F933F932F930F9348E83AE00E94F2
:100C500082070F912F913F914F91B9DF4F933F93AF
:100C60002F930F9349E832E00E9482070F912F9152
:100C70003F914F91ACDF4F933F932F930F9340E100
:100C800030E00E9482070F912F913F914F914F9337
:100C90003F932F930F9344E031E80E9482070F9116
:100CA0002F913F914F9193DF4F933F932F930F934A
:100CB00044E133E60E9482070F912F913F914F91BB
:100CC0004F933F932F930F9345E130E00E948207AB
:100CD0000F912F913F914F914F933F932F930F93EC
:100CE00046E133E00E9482070F912F913F914F918F
:100CF0004F933F932F930F9347E133E00E94820776
:100D00000F912F913F914F914F933F932F930F93BB
:100D100048E13BE00E9482070F912F913F914F9154
:100D20004F933F932F930F9349E13FED0E9482072A
:100D30000F912F913F914F914F933F932F930F938B
:100D40004AE131E00E9482070F912F913F914F912C
:100D50004F933F932F930F934BE13FE10E94820704
:100D60000F912F913F914F914F933F932F930F935B
:100D70004CE130E00E9482070F912F913F914F91FB
:100D80004F933F932F930F934DE136E10E948207DB
:100D90000F912F913F914F914F933F932F930F932B
:100DA0004EE130E00E9482070F912F913F914F91C9
:100DB0004F933F932F930F934FE131E00E948207AF
:100DC0000F912F913F914F914F933F932F930F93FB
:100DD00040E330E00E9482070F912F913F914F91A5
:100DE0004F933F932F930F9341E330E00E9482078C
:100DF0000F912F913F914F914F933F932F930F93CB
:100E000044E33FE10E9482070F912F913F914F9160
:100E10004F933F932F930F9345E333E00E94820754
:100E20000F912F913F914F914F933F932F930F939A
:100E300042E330E00E9482070F912F913F914F9142
:100E40004F933F932F930F9343E330E00E94820729
:100E50000F912F913F914F914F933F932F930F936A
:100E600046E33FED0E9482070F912F913F914F91F2
:100E70004F933F932F930F9347E331E00E948207F4
:100E80000F912F913F914F914F933F932F930F933A
:100E90004EE830E80E9482070F912F913F914F91C9
:100EA0009FDE4F933F932F930F9341E030E80E94D2
:100EB00082070F912F913F914F914F933F932F9323
:100EC0000F9347EC31E00E9482070F912F913F91E1
:100ED0004F914F933F932F930F934AE83AE80E9424
:100EE00082070F912F913F914F914F933F932F93F3
:100EF0000F934BE83FEF0E9482070F912F913F9194
:100F00004F91089504D036D00AD029D0089532D018
:100F100000E80FB921D04FB91FD021D0089500E0CB
:100F20000FB91AD03FB918D0089500E40FB914D002
:100F300000E00FB911D03FB10895E9DF1BD0F5DF14
:100F40000ED0089517D000EC0FB906D000E00FB90D
:100F500003D03FB104D00895779BFECF089501E1FF
:100F600008BB0000000000000000000000000000BE
:100F70000000089500E108BB000000000000000030
:100F8000000000000000000008951DD142E0BFDF16
:100F9000F1DF322FC4DFE3DF089515D142E0B7DF80
:100FA000E9DF00E00FB9D8DF203029F035913FB9F3
:100FB000D3DF2A95F9CFD3DF08954F933F932F9333
:100FC0000F9340E430E80E9482070F912F913F91E8
:100FD0004F914F933F932F930F9341E430E00E9442
:100FE00082070F912F913F914F914F933F932F93F2
:100FF0000F9340E630E00E9482070F912F913F91BE
:101000004F914F933F932F930F9341E630E00E940F
:1010100082070F912F913F914F914F933F932F93C1
:101020000F9342E630E00E9482070F912F913F918B
:101030004F914F933F932F930F9343E630E00E94DD
:1010400082070F912F913F914F914F933F932F9391
:101050000F9344E637E00E9482070F912F913F9152
:101060004F914F933F932F930F9345E630E00E94AB
:1010700082070F912F913F914F914F933F932F9361
:101080000F9341E230EA0E9482070F912F913F9126
:101090004F914F933F932F930F9342E23BE00E9477
:1010A00082070F912F913F914F9142E030DF62DF35
:1010B000322F35DF54DF08954F933F932F930F93D3
:1010C00040E430E80E9482070F912F913F914F91A9
:1010D0004F933F932F930F9341E430E00E94820798
:1010E0000F912F913F914F914F933F932F930F93D8
:1010F00040E630E00E9482070F912F913F914F917F
:101100004F933F932F930F9341E630E00E94820765
:101110000F912F913F914F914F933F932F930F93A7
:1011200042E630E00E9482070F912F913F914F914C
:101130004F933F932F930F9343E630E00E94820733
:101140000F912F913F914F914F933F932F930F9377
:1011500044E637E00E9482070F912F913F914F9113
:101160004F933F932F930F9345E630E00E94820701
:101170000F912F913F914F914F933F932F930F9347
:1011800041E230EA0E9482070F912F913F914F91E7
:101190004F933F932F930F9342E23BE00E948207CD
:1011A0000F912F913F914F9142E0B1DEE3DE30E0AD
:1011B0003FB9D2DE203029F031913FB9CDDE2A95FA
:1011C000F9CFCDDE089540E4A2DED4DEAEDEC7DE88
:1011D0009EDE3068CFDEA3DEC2DE4F933F932F93B7
:1011E0000F9341E230E00E9482070F912F913F91CF
:1011F0004F914F933F932F930F9340E630E00E941F
:1012000082070F912F913F914F914F933F932F93CF
:101210000F9341E630E00E9482070F912F913F919A
:101220004F914F933F932F930F9342E630E00E94EC
:1012300082070F912F913F914F914F933F932F939F
:101240000F9343E630E00E9482070F912F913F9168
:101250004F914F933F932F930F9344E637E00E94B3
:1012600082070F912F913F914F914F933F932F936F
:101270000F9345E630E00E9482070F912F913F9136
:101280004F914F933F932F930F9342E23BE00E9485
:1012900082070F912F913F914F914F933F932F933F
:1012A0000F9341E430E00E9482070F912F913F910C
:1012B0004F914F933F932F930F934EE230E00E9454
:1012C00082070F912F913F914F9108953F934F9334
:1012D0003F932F930F9340E430E00E9482070F91D9
:1012E0002F913F914F914F933F932F930F9341E253
:1012F00030E00E9482070F912F913F914F914F93C1
:101300003F932F930F9341E434E00E9482070F91A3
:101310002F913F914F9143E23F91F4DD42E0F7DDA1
:1013200020E128DE00E00FB917DE3EDE0895202020
:1013300020202020202020202020200020202020CD
:10134000202020202020202020005468616E6B2067
:10135000796F7520666F7220706C6179696E672095
:101360005370616365202020202020496E766164DF
:10137000657273212054686520646576656C6F70B2
:1013800065727320776F756C642020206C696B65C3
:1013900020796F7520746F206E6F7465207468619A
:1013A0007420616E79202020202020202027756E57
:1013B0006578706563746564272062656861766925
:1013C0006F75727320796F75202020202020656E44
:1013D000636F756E7465722061726520696E206638
:1013E000616374204561737465722065676773205B
:1013F00028687474703A2F2F6269742E6C792F31BB
:101400006C7A6F525A76290020202020202020203C
:1014100020202020202020202020202020202020CC
:10142000202020202020202020000001436F6E6714
:10143000726174756C6174696F6E732120596F7578
:1014400020646965642E436F6E67726174756C61A8
:1014500074696F6E732120596F7520776F6E2E201F
:101460005761736E277420746861742061207761FE
:10147000737465206F662074696D653F596F75726E
:101480002073636F72652069733A2000506C617934
:101490002047616D65207C457874726120496E66D5
:0E14A0006F7C20556E646566696E6564200081
:00000001FF
