:020000020000FC
:100000000C948000189500001895000018950000C9
:10001000189500001895000018950000189500002C
:10002000189500001895000018950000189500001C
:100030001895000018950000189500000C949B007E
:1000400000001895000018950000189500001895FC
:1000500000001895000018950000189500001895EC
:100100000FE00EBF0FEF0DBF00E00BBF00E808B916
:100110000FE003BF0CE901BF02E007BF7894A7D14D
:100120008FD190E070E02AD08BD12ED032D010E069
:100130003FD030D0F8CF4FB62F937F935ED1822F30
:100140007F912F91793129F073954FBE18954FBE4D
:1001500018959130E1F370E001D01895873729F0B8
:10016000873B39F0873D49F00895503009F05A95A2
:1001700008955F3109F053950895089544E12DE005
:1001800030E061E250E00895913011F091E090E0AC
:10019000089508950F930AE14F933F932F93202FD3
:1001A000FAE0E0E5C5D22F913F914F910F91BDCF7D
:1001B00013950BD02A953395203009F0FACF05D04E
:1001C0003A9523953030A1F3FACF3AD14F933F932C
:1001D0002F934AE230E061D22F913F914F914F939C
:1001E0003F932F934BE230E058D22F913F914F91A4
:1001F0004F933F932F934CE230E04FD22F913F919A
:100200004F914F933F932F934DE230E046D22F9181
:100210003F914F914F933F932F93222FF9E0EEEFB1
:1002200087D22F913F914F914F933F932F93242F3C
:10023000FAE0EAE1EED22F913F914F914F933F9335
:100240002F93232FFAE0ECE073D22F913F914F913F
:1002500015300CF463C04F933F932F93222FF9E096
:10026000EEEF66D22F913F914F914F933F932F9393
:10027000242FFAE0EAE1CDD22F913F914F914F9395
:100280003F932F93232FFAE0ECE052D22F913F912E
:100290004F9119300CF442C04F933F932F93222F6C
:1002A000F9E0EEEF45D22F913F914F914F933F935D
:1002B0002F93242FFAE0EAE1ACD22F913F914F9196
:1002C0004F933F932F93232FFAE0ECE031D22F91FD
:1002D0003F914F911D300CF421C04F933F932F93CA
:1002E000222FF9E0EEEF24D22F913F914F914F93BF
:1002F0003F932F93242FFAE0EAE18BD22F913F9185
:100300004F914F933F932F93232FFAE0ECE010D2BD
:100310002F913F914F91113108F03CCF0ED05ED01C
:1003200090E008954F933F932F93262FFAE0EEE24B
:10033000FFD12F913F914F9108954F933F932F936A
:100340004CE230E8AAD12F913F914F914F933F93C8
:100350002F934DE231E0A1D12F913F914F914F93D7
:100360003F932F93252FFAE0EEE2E2D12F913F91B8
:100370004F914F933F932F9322E0EAD12F913F91DA
:100380004F914F933F932F9323E0E2D12F913F91D1
:100390004F910895AF93BF93BEE4ADE11197F1F78C
:1003A000BF91AF910895AF93BF93B5E1A8E51197C1
:1003B000F1F7BF91AF910895AF93BF93B0E0A3E879
:1003C0001197F1F7BF91AF910895AF93BF93BFEF2E
:1003D000AFEF1197F1F7BF91AF910895F6DF089550
:1003E000FDDFFCDFFBDFFADFF9DFF8DFF7DFF6DF49
:1003F000F5DFF4DFF3DFF2DF08950F9370EF20E015
:1004000007D001B1200F04D001B1200F0F91089542
:1004100073B9709572B90895AF93BF93B5E0A2E335
:100420001197F1F7BF91AF910895F6DFF5DFF4DF93
:10043000F3DFF2DFF1DFF0DFEFDFEEDFEDDF089576
:100440004F933F932F934F933F932F934EE830E872
:1004500024D12F913F914F914EE824D156D130D1E4
:1004600049D137FDFACF2F913F914F91089507E180
:1004700007BB00E008BB0EE50DB900E008BBCCDF10
:1004800000E108BBD2DF4F933F932F9348E83AE057
:1004900004D12F913F914F91BFDF4F933F932F9303
:1004A00049E832E0FAD02F913F914F91B5DF4F9359
:1004B0003F932F9340E130E0F0D02F913F914F9147
:1004C0004F933F932F9344E031E8E7D02F913F9132
:1004D0004F91A2DF4F933F932F9344E133E6DDD05A
:1004E0002F913F914F914F933F932F9345E130E0F0
:1004F000D4D02F913F914F914F933F932F9346E14B
:1005000033E0CBD02F913F914F914F933F932F9357
:1005100047E133E0C2D02F913F914F914F933F93EA
:100520002F9348E13BE0B9D02F913F914F914F93EA
:100530003F932F9349E13FEDB0D02F913F914F91E1
:100540004F933F932F934AE131E0A7D02F913F91F2
:100550004F914F933F932F934BE13FE19ED02F91CB
:100560003F914F914F933F932F934CE130E095D0C3
:100570002F913F914F914F933F932F934DE136E150
:100580008CD02F913F914F914F933F932F934EE1FA
:1005900030E083D02F913F914F914F933F932F9312
:1005A0004FE131E07AD02F913F914F914F933F939C
:1005B0002F9340E330E071D02F913F914F914F93B3
:1005C0003F932F9341E330E068D02F913F914F91BB
:1005D0004F933F932F9344E33FE15FD02F913F919F
:1005E0004F914F933F932F9345E333E056D02F9194
:1005F0003F914F914F933F932F9342E330E04DD083
:100600002F913F914F914F933F932F9343E330E0CE
:1006100044D02F913F914F914F933F932F9346E3B7
:100620003FED3BD02F913F914F914F933F932F93AD
:1006300047E331E032D02F913F914F914F933F9359
:100640002F934EE830E829D02F913F914F91EDDE66
:100650004F933F932F9341E030E81FD02F913F916C
:100660004F914F933F932F9347EC31E016D02F914A
:100670003F914F914F933F932F934AE83AE80DD023
:100680002F913F914F914F933F932F934BE83FEF23
:1006900004D02F913F914F91089504D036D00AD0C5
:1006A00029D0089532D000E80FB921D04FB91FD01A
:1006B00021D0089500E00FB91AD03FB918D008959D
:1006C00000E40FB914D000E00FB911D03FB1089584
:1006D000E9DF1BD0F5DF0ED0089517D000EC0FB97D
:1006E00006D000E00FB903D03FB104D00895779B46
:1006F000FECF089501E108BB0000000000000000EB
:100700000000000000000000089500E108BB0000A8
:10071000000000000000000000000000000008953C
:10072000E1D042E0BFDFF1DF322FC4DFE3DF089525
:10073000D9D042E0B7DFE9DF00E00FB9D8DF2030E1
:1007400029F035913FB9D3DF2A95F9CFD3DF08954A
:100750004F933F932F9340E430E89FDF2F913F91D9
:100760004F914F933F932F9341E430E096DF2F91C9
:100770003F914F914F933F932F9340E630E08DDFB1
:100780002F913F914F914F933F932F9341E630E04C
:1007900084DF2F913F914F914F933F932F9342E6E8
:1007A00030E07BDF2F913F914F914F933F932F93F9
:1007B00043E630E072DF2F913F914F914F933F938B
:1007C0002F9344E637E069DF2F913F914F914F938C
:1007D0003F932F9345E630E060DF2F913F914F919B
:1007E0004F933F932F9341E230EA57DF2F913F9190
:1007F0004F914F933F932F9342E23BE04EDF2F9177
:100800003F914F9142E04EDF80DF322F53DF72DFA6
:1008100008954F933F932F9340E430E83EDF2F91AC
:100820003F914F914F933F932F9341E430E035DF59
:100830002F913F914F914F933F932F9340E630E09C
:100840002CDF2F913F914F914F933F932F9341E690
:1008500030E023DF2F913F914F914F933F932F93A0
:1008600042E630E01ADF2F913F914F914F933F9333
:100870002F9343E630E011DF2F913F914F914F933B
:100880003F932F9344E637E008DF2F913F914F913C
:100890004F933F932F9345E630E0FFDE2F913F913A
:1008A0004F914F933F932F9341E230EAF6DE2F9121
:1008B0003F914F914F933F932F9342E23BE0EDDE08
:1008C0002F913F914F9142E0EDDE1FDF30E03FB9C5
:1008D0000EDF203029F035913FB909DF2A95F9CF95
:1008E00009DF089540E4DEDE10DFEADE03DFDADE52
:1008F00030680BDFDFDEFEDE4F933F932F9341E244
:1009000030E0CBDE2F913F914F914F933F932F9348
:1009100040E630E0C2DE2F913F914F914F933F93DD
:100920002F9341E630E0B9DE2F913F914F914F93E5
:100930003F932F9342E630E0B0DE2F913F914F91ED
:100940004F933F932F9343E630E0A7DE2F913F91E3
:100950004F914F933F932F9344E637E09EDE2F91C4
:100960003F914F914F933F932F9345E630E095DEB3
:100970002F913F914F914F933F932F9342E23BE052
:100980008CDE2F913F914F914F933F932F9341E4F2
:1009900030E083DE2F913F914F914F933F932F9300
:1009A0004EE230E07ADE2F913F914F9108953F93D0
:1009B0004F933F932F9340E430E06FDE2F913F91B0
:1009C0004F914F933F932F9341E230E066DE2F919A
:1009D0003F914F914F933F932F9341E434E05DDE7D
:1009E0002F913F914F9143E23F9157DE42E05ADE13
:1009F00020E18BDE00E00FB97ADEA1DE0895202031
:100A00002020202020202020202020002020202006
:100A1000202020202020202020000405040504059B
:100A20000405040504050405040504050405202047
:100A300020202020202020202020202020202020B6
:100A400020202020202020202020202020202000C6
:100A5000436F6E67726174756C6174696F6E732138
:0A0A600020596F7520646965642E4B
:00000001FF
